:030000000219FDE5
:03000B000200AA46
:03002B0002015778
:03005B000202E0BE
:030073000202CDB9
:1000800002030406080C10182030406080040608A3
:100090000C10182030406080A0C00003070F1F0D17
:1000A0000D04050D050205030302C2AFC0D0C0E078
:1000B000206214E5256009E473E525F4F58AD2622F
:1000C000D0E0D0D0D2AF3285268AC262E526F46075
:1000D0002AD0E0D0D0D292D293D294D2AF32206F35
:1000E0000D20650AE57B429074FAF4D5E0FDD292CA
:1000F000D293D294D0E0D0D0D2AF32758A00C28DE4
:10010000D26201F401B9306805206502C29201B9DA
:10011000306805206502C29301B930680520650288
:10012000C29401B9C29530680A2065077407D5E00A
:10013000FDC29201B9C29630680A2065077407D5DE
:10014000E0FDC29301B9C29730680A2065077407C1
:10015000D5E0FDC29401B9C2AFC2AD53E6EFC0D045
:10016000C0E0D2D3D2AFC2CEE52A600720744915D1
:100170002A21B87800790020742EE580307E01F4C1
:1001800030E70278FF53DACF207E0343DA20307E57
:100190000343DA10C2D8C271E580307E01F430E743
:1001A0000279FFC3E89970CB306103752A18207477
:1001B00003752A18885CD27020740DE52B60041535
:1001C0002B21C843DA01C2D82070024137A85C2035
:1001D0006102C2702074367982B70431C3E894F0AA
:1001E000400374F0F8E8C4540F28F87984B7030288
:1001F000410DC313C3138721200802C313200A062D
:10020000C3C898F8410D28F8500374FFF88822E518
:100210002D54066022206B1FE536C333C333F8E547
:1002200064C313C313F9C3952240028922E825222F
:10023000F52250037522FF7882B6044E852224A849
:1002400024C3E52495614002A861C3E89563400298
:10025000A8638825E56670024188C3E8AA669A50BB
:1002600003E8FAE4F9EAC333FBE568F45B29400DDF
:100270002567F8E56760021567400B41880AC3E50A
:10028000679A5002056778FF882620CF0AD0E0D011
:10029000D043E610D2AD32C2CF053A7801E52A60EC
:1002A00005307402152AC3E55C94014005755F00B2
:1002B00041C3756000756900E55F2401F55F500377
:1002C000755FFFD0E0D0D043E610D2AD32C2AF535D
:1002D000E67F7592FA7593FFC260759104D2AF32D2
:1002E000C2AF53E6EFC2ADC0D0C0E0C0F0D2D3D2AF
:1002F000AFA8FBA9FCC2D8307102614753DACF2006
:100300007E0343DA10307E0343DA20D271E5803079
:100310007E01F420E702611E88278928A17453DA40
:10032000CF207E0343DA20307E0343DA10C2D8C2E6
:1003300071307402A1607800E580307E01F430E70E
:1003400002A160885CA14853DACF207E0343DA2003
:10035000307E0343DA10C271206102812053DACF6C
:10036000207E0343DA10307E0343DA20C2D8D271F4
:1003700088578958C3E89555F8E99556F97B007E6A
:10038000087A00C3E8948CE994005005755B0081FD
:1003900012882178A2E6A8216055C3E894C8E994A0
:1003A000005008E4D2E4FB7A0A61EDC3E89468E9FE
:1003B00094015008E4D2E3FB7A0F61EDC3E894D0D6
:1003C000E994025008E4D2E2FB7A1E61EDC3E8949E
:1003D000A0E994055008E4D2E1FB7A3C61EDC3E862
:1003E0009498E994085008E4D2E0FB7A787E00C340
:1003F000E89559FCE9955AFD30E70AECF42401FC34
:10040000EDF43400FD755B00C3EC9AED9E5003756E
:100410005B018859895A8557558558567802A148F5
:10042000C3E89527F8E99528F9307C02A12C307BA8
:1004300002A12C307A02A1252075028143E9FDE852
:10044000FC8162E9C313F9E813F8307902A125E9C8
:10045000C313F9E813F8307802A125E9C313FDE8C6
:1004600013FC20612CC3EC941CED940240028179B2
:0F047000ED701EC3EC94C850180529E5297002E1
:10047F001529C3E529940A5002A160755C00D2705A
:10048F00A160E529600215297888E6F97400207FBC
:10049F00087896B90302789EE624FAFEE43400FF4A
:1004AF00C3EC9EFCED9FFD9208B90310A208500704
:1004BF00207609D27681CB307602C276A20850160A
:1004CF00B9030DECF42401FCEDF43400FD0204E556
:1004DF0078007900A12CB90315EC33FCED33FDC383
:1004EF00EC940AFCED9400FD50047C007D00C3ECFD
:1004FF0094FFED9400400678FF7900A12CEC8572F3
:10050F00F0A4C5F0A2F733F879004003020548784C
:10051F00FF7900020548E9C313F9E813F8307C0EA0
:10052F00E9600278FFC3E81338F8E43400F9C3E850
:10053F0094FFE99400400278FF885CD2702061023A
:10054F00A160741FF4552F4BF52FC274EB7002D2BC
:10055F0074752A18307403752A0A306102A1742049
:10056F00740353DAFE207403752B06D0F0D0E0D05D
:10057F00D0D2AD43E6103279010205A4790302050A
:10058F00A4790A0205A4791E0205A479640205A4C0
:10059F0079C80205A47817E4D5E0FDD8FAD9F62278
:1005AF007A147B780205CB7A107B8C0205CB7A0DFF
:1005BF007BB40205CB7A0B7BC80205CBE573D5E084
:1005CF0001227902E4C296D5E0FDC293D5E0FDD2B7
:1005DF0093D5E0FDD296D5E0FDE920E002C292303E
:1005EF00E002C294E573D5E0FDE920E002D292303B
:1005FF00E002D2947496D5E0FDD9C9EAF8D5E0FDB2
:10060F00D8FBDBB8C29622C37C007D0075F00005D5
:10061F00F0EA33FAEB33FB50F6EB13FBEA13FAC3B2
:10062F00E9FFE8FEE89AF8E99BF95004EFF9EEF8D4
:10063F00B3EC33FCED33FDD5F0DFEDF9ECF822E848
:10064F0089F08A20D2D4F8A9F07B0030F70B7BFF1A
:10065F00F42401F8E9F43400F9E88520F0A4ADF0B2
:10066F00F8E98520F0A4AFF0FEED2EF974003FFA03
:10067F007C04C3EA13FAE913F9E813F8DCF48BF0FE
:10068F0030F70AE8F42401F8E9F43400F9E889F0C6
:10069F00C2D4F8A9F0227882B60403020700C3E59A
:1006AF005C940140030206CA852224E4F544F54513
:1006BF00F546F547F548C26E0207007882E6FCD290
:1006CF006EE522F523783879C7AA40AB41C3EB1307
:1006DF00FBEA13FAEC146013C3EB13FBEA13FAEC07
:1006EF0014146007C3EB13FBEA13FAD1168844897D
:1006FF004522C3E5449523F8E5459400F9500CC312
:10070F00E89480E994FF4016020731C3E8947FE92B
:10071F0094005003020731787F7900020731788007
:10072F0079FF8849894A22E5492546F8E54A354740
:10073F00F9854A20E4300701F43548FA30E709C358
:10074F00EA94F0401502076FC3EA940F50030207B3
:10075F006F78FF79FF7A0F02076F780079007AF0D0
:10076F00C3E5249561500AC374019524500B020709
:10077F008DE54A20E70E02078DE54A30E7068846E9
:10078F0089478A482278A5E6FAC3E54933F8E54A4E
:10079F0033F9D14EE930E70BC3E89480E994FF4079
:1007AF0013E1C7C3E8947FE994005002E1C7787F53
:1007BF007900E1C7788079FFE820E715C3E5239832
:1007CF00F84009C3E8940140030207EE78010207DD
:1007DF00EEE8F424012523F840030207EE78FF88A2
:1007EF004B2278A6E6FAA847A948D14EE930E70C84
:1007FF00C3E89401E994FF4016020822C3E894FF6E
:10080F00E99400500302082278FF79000208227849
:10081F000179FFE920E715C3E54B98F84009C3E8D4
:10082F00940140030208497801020849E8F42401C1
:10083F00254BF8400302084978FF88242278FF20CF
:10084F00692879A1E76023E541601F74FF8541F0B6
:10085F00848539F0306A0375F005A4F8C5F060029D
:0E086F0078FFC3E895645002A864886322C332
:10087D00E5409440E5419401E563500314018D0476
:10088D006002F563220208952275E890227883E6CE
:10089D00FF30EDF9A8BDA9BE0570C3E57094084001
:1008AD0052757000E9FA79A0E76044EA7007E571C6
:1008BD00601B0208CEC3E895716010E571500660AB
:1008CD000C140208DA0460F90208DAE571F571C357
:1008DD00946D401B7561C0C394044013756180C352
:1008ED009404400B756140C3940440037561007519
:1008FD00BB0022E5612410500274FFF5617982B7C7
:10090D0004022127C3A861E524985002A824C3E856
:10091D0095634002A86388258826E570B4070375A2
:10092D00BB1022743279A787F0A4C5F0A2F733F873
:10093D00C3E895614002A86188228824882588260D
:10094D008864227540007541F022C2AF75C820A899
:10095D00CCA9CDAA3A30CF010A75C824D2AFAB3B92
:10096D00AC3C883B893CC3E89BF8E99C206908F9BD
:10097D00306602416621C0AD3D8A3DF9EA9DFA60BF
:10098D000478FF79FFAE3EAF3F8B3E8C3FA83BA96D
:10099D003CC3E89EF8E99FF9C3E54113FBE540131D
:1009AD00FAE82AF540E93BF54150067540FF7541DF
:1009BD00FF410DAA40AB41AC40AD417E047F02C367
:1009CD00EB9404400D1E1FC3EB94084005206A02F2
:1009DD001E1FC3ED13FDEC13FCDEF7C3EA9CFAEB0F
:1009ED009DFBEF6009C3E913F9E813F8DFF7EA2877
:1009FD00FAEB39FB8A408B4150067BFF8B408B41D4
:100A0D00C3EB94025002D2663069047F03413878FB
:100A1D0092E6FFC3E537948240110FC3E53794A0EA
:100A2D0040010FC3EF940640027F057E02E541C4ED
:100A3D00540FF9E541C454F0F8E540C4540F28F8BB
:100A4D00C3E89EFAE99400FB4009C3EA9402EB94D3
:100A5D000050047A02E4FB41B2AA40AB41EBC4FE64
:100A6D00EAC4540F4EFCC3EA9CFAEB9400FBC3E8B6
:100A7D0013C313F8EA28FAEB3400FB8A408B41C309
:100A8D00EB94024002C2667802EBC4FE7B00EAC41E
:100A9D00540F4EFAC3EA98FA4005C3940250027AF5
:100AAD00027892E6FF30600241B2855192855293F1
:100ABD00D26043E680C3E49AF8E49BF930660261A4
:100ACD003EE8FAE9FBD3E913FDE813FC885189529E
:100ADD00C3EF94036038EF20E00DE82CF8E93DF901
:100AED00ECFAEDFB020B07E828F8E939F9C3E82425
:100AFD0002F8E93400F97AFE7BFFC3EF9403400E50
:100B0D008A538B54884D894E8C4F8D50617288530A
:100B1D0089548A4D8B4E8C4F8D503069127553F020
:100B2D007554FF754FF07550FF7551F07552FF619B
:100B3D0072E8FAD3E813FC8851C3EF94036020EFF9
:100B4D0020E007E82CF8ECFA615EE8282402F87A38
:100B5D00FEC3EF940340088A53884D8C4F61728811
:100B6D00538A4D8C4FE568C3335002646BF5683082
:100B7D006002617C753402D26043E680E52D540637
:100B8D006034A840A941C3E913F9E813F8C3E91388
:100B9D00F9E813F8306904E92440F9C2AF53E67F50
:100BAD00759100C3E498F594E499F595759104D287
:100BBD006043E680D2AF22D26475430075200030C9
:100BCD006C03752040020BE3D26475430075204021
:100BDD00306C0375200078017901206620E52D54D5
:100BED00066002C2647914E541C313700104F8C3B1
:100BFD00941440027814306904781B791B2060101E
:100C0D00E543600C306903D53404D26D818E718457
:100C1D000543E59BF45440B52002817830690908FD
:100C2D00C3E899400118810A20640A08C3E8994075
:100C3D000261E3810AC264C2AF53E67F7591003051
:100C4D0066127594007595F8759104D26043E6802F
:100C5D00D2AF61E3E5417EFFC3334005C3334001AD
:0E0C6D00FEC3E49E759400F5958155C3E533F2
:100C7B009401500261E330640261E3D802818C81FC
:100C8B000AC26DC2AF53E67F7591008553948554AC
:100C9B0095759104854D92854E93D26043E680D233
:100CAB00AFE52D54066008206A020533020CCA30EA
:100CBB006D0D206C0A2064071581158102157422B5
:100CCB0078003064027801E53775F007A4F9E5F098
:100CDB0028F5F0E9A2F013A2F113A2F213F537C332
:100CEB0094785003753778C3E53795384008D2654B
:100CFB00D292D293D294306002A101854F9285504B
:100D0B0093D26043E68022207D16C2AF754202C2A9
:100D1B0096D295306202C294D2AF759F11020F0129
:100D2B00C2AF754202C296D297306202C292D2AF64
:100D3B00759F11020F01307243207D20C2AF7542A7
:100D4B0003900135757B40D294C297306204C293F5
:100D5B00A15FD296D2AF759F21020F01C2AF754230
:100D6B0003900135757B40D292C295306204C293D9
:100D7B00A17FD296D2AF759F01020F01207D17C2C2
:100D8B00AF754203900110D294306202C293D2AF7E
:100D9B00759F21020F01C2AF754203900110D292D1
:100DAB00306202C293D2AF759F01020F01207D16F4
:100DBB00C2AF754204C295D297306202C293D2AFD2
:100DCB00759F01020F01C2AF754204C297D29530D5
:100DDB006202C293D2AF759F21020F013072432082
:100DEB007D20C2AF754205900124757B20D293C242
:100DFB0096306204C292C105D295D2AF759F110293
:100E0B000F01C2AF754205900146757B80D293C22C
:100E1B0096306204C294C125D297D2AF759F11024E
:100E2B000F01207D17C2AF754205900106D293309A
:100E3B006202C292D2AF759F11020F01C2AF75420F
:100E4B000590011AD2933062EBC294D2AF759F1109
:100E5B00020F01207D16C2AF754206C297D29630A3
:100E6B006202C292D2AF759F21020F01C2AF7542CF
:100E7B0006C295D296306202C294D2AF759F010220
:100E8B000F01307243207D20C2AF754201900146A5
:100E9B00757B80D292C295306204C294C1ABD2975B
:100EAB00D2AF759F01020F01C2AF754201900124B1
:100EBB00757B20D294C297306204C292C1CBD2957B
:100ECB00D2AF759F21020F01207D17C2AF75420172
:100EDB0090011AD292306202C294D2AF759F010276
:100EEB000F01C2AF754201900106D294306202C26B
:100EFB0092D2AF759F21C26522900104757B00D2FF
:100F0B0092D293D294C295C296C297C26222788033
:100F1B0076090876090876040876FF0876030876C2
:100F2B00FF087609087601087601087601788C7639
:100F3B00010876FF0876FF0876FF0876FF0876FF34
:100F4B000876030876FF0876FF0876FF08762508F3
:100F5B0076D00876280876500876040876FF08764F
:100F6B000208760008767A0876FF08760108760183
:100F7B00087600087603087600227887E6FFC272AF
:100F8B007888E6C394036008C27DE630E102D27D27
:100F9B00C27E7889E630E102D27EC3EF940260080C
:100FAB00758E01D273020FB8758E00C273227880D2
:100FBB00E6149000809378A5F67881E61490008073
:100FCB009378A6F67886E61490008D9378A7F6783A
:100FDB0086E6F539C394025003753902789CE675A1
:100FEB0038FFB402037538A0B4030375388278A3B5
:100FFB00E61490009A93F566120F0422227896E677
:10100B00FA7897E6FB7888E6B40305C3EB940EFBFE
:10101B00307F047A007BFFC3EB9AFCC394825002AF
:10102B007C827572000572EC8572F0A4C3E5F094B6
:10103B007D40F222D27F11081205951205957A0098
:10104B007B007C1012058BE55C2AFA74003BFBDC01
:10105B00F37C04C3EB13FBEA13FADCF7FEC27F113C
:0D106B000822757C00757D00E5EF20E6038E
:101078007520000520903FFFE520146006901DFFB5
:101088001460009304600375EF1653D9BF7581C0CF
:1010980043FF8012058675EF0643B203E5B32402C9
:1010A80020E70DF521E5E320E0068521B343E301C0
:1010B800120F047580FF75A40075F1D075D47F7583
:1010C800901C75A5FC75F2FF75D50075A60175E233
:1010D80041120F04E4F8F6D8FD756801120F1912D1
:1010E80015C578988673753001C2AF12059F120531
:1010F800AF1205951205B61205951205BD12059594
:10110800C2AF757C00757D0078FA79FA308707D907
:10111800FBD8F7021C00120F85120FB9110711082E
:1011280078988673120F0475881075890275C8241B
:1011380075910475D84075A82275B80275E6907542
:101148009B80759D0075D10E75BC5875BB0075BA2E
:101158001175E880120586D2AF12089275360053D1
:10116800DACF207E0343DA20307E0343DA1043DAF5
:1011780001C2D8C27112059FD2617B037A0CE55B6C
:1011880070077A0CDB030211081205952070030220
:101198001108C270E55CC3940240E1E52F541F8535
:1011A8005E5DF55EB55DD5DAD5C26153DACF207ED6
:1011B8000343DA20307E0343DA10C2D8C27178A222
:1011C800E67008D274E52F54E0F52FC27575290032
:1011D80012059A307409C3E529940A4002D275129F
:1011E800058B78023074027800C3E55C9840F0C241
:1011F800AF1205AF1205AF1205AFD2AF12059F753A
:101208004C007888E6B4030241FD12058B788CE621
:10121800C3940150030212FDE530C3940150030248
:1012280012FD757CA5757DF1207435C3E55C94FFCE
:1012380050030212FDC2AF1205C4D2AF12059AC301
:10124800E55C940150EFC2AF1205AF12059012058C
:10125800AFD2AF12059AC3E55C94FF40E902177D4F
:101268007F02D27F110812059AC2AFC27F1108AE61
:101278005CC3E55C947FD2AF5002610D120586C253
:10128800AF1205C4D2AFDFDA113FC3EE7897F6127A
:10129800059F1217007F0AD27F110812059AC2AF64
:1012A800C27F1108AE5CC3E55C947FD2AF50E612F2
:1012B8000586C2AF1205AF1205901205AFD2AFDF97
:1012C800D6113FEE24037896F6F87997E7C394820F
:1012D8004003985006E824827897F612059F121664
:1012E8001312172F12059A1108C3E55C94FF5002D8
:1012F800412A02177D757C00757D00C3E55C954C1D
:101308004003855C4C12059A78017988E7B403029A
:101318007805C3E55C984002410AC2AF1205C412C1
:1013280005C41205C4D2AF12059F753000E4F5312B
:10133800F5320531E531F4703F0532789AE67819CF
:10134800146012783214600D787D14600878FA14ED
:101358006003753200C3E53298401D120F04120570
:1013680086153275310078998673C2AF1205C4D2DA
:10137800AF7898867312059A120590E52A700530A1
:101388007402210878012074027806C3E55C98404D
:10139800A17888E6C39403600312059AE52A7003CE
:1013A800021108C2AF120F04E4F522F523F524F563
:1013B80025F526F567D2AF7885E6C333F565E4F5FC
:1013C80044F545F546F547F548F570F52CF52DF546
:1013D8003775700875BB1012058612089630EDFD3A
:1013E800A8BDA9BEE97001F8887112089A7570083D
:1013F80075BB10120F85C2AF7561FF1209308522C7
:1014080061852262852263D2AF7522017524017538
:101418002501752601856069756A017888E6B40337
:1014280007C27D307602D27DD268D2697533001248
:101438000E5E120E8D120950120957120950120928
:1014480057120950120BD51206A5120CCB120D1209
:10145800120957120BC4306E0312070120660312DB
:0E146800084C30660312087C120CCB120D41AA
:10147600120957120BD5306E03120736120CCB1217
:101486000DB8120957120BC4306E03120794120CD2
:10149600CB120DE7120957120BD5306E031207F166
:1014A600120CCB120E5E120957120896120BC412BA
:1014B6000CCB120E8D12089A1209573069328564C8
:1014C60061856462856069756A0179187A0CC3E57D
:1014D6003399400FC269D26A8A358564618564632F
:1014E6000214F6C3E55C9401400302144C02157C19
:1014F600306A1D206C1AE535147006C26AD26B81FB
:101506004CF535C3E55C9401400302144C02157C8E
:1015160075360078FA79A4E760027803C3E55F9828
:101526005054307404E52A604D7888E6B4031720D9
:101536007D05207607A14C307602A14C206C07D29F
:101546006C856461818B78F0306C058564617820E8
:10155600C3E541985002814C306C1BC26CC27D3091
:101566007602D27DD26A753512856461814C053664
:10157600E55C6002A17F753600C2AF120F04788762
:10158600E6FE7602120F857887EEF6E4F522F5235D
:10159600F524F525F526F565752C00752D00D2AFD9
:1015A60012059A120F0478A4E66006C292C293C28C
:1015B60094307409C3E536940440022108613590DD
:1015C6001A0D7820121655E520B4550CA31216559F
:1015D600E520B4AA030215F3757CA5757DF1120FFB
:1015E60019121613757C00757D00021612901A03E7
:1015F60078807B0A121655A308DBF9901A0F788CAF
:101606007B19121655A308DBF9901A2822C2AF12CD
:101616001698121675901A00740E12165AA37408AC
:1016260012165AA3741512165A901A0378807B0A5A
:10163600121659A308DBF9901A0F788C7B1912162B
:1016460059A308DBF91216AB121689901A2822E460
:1016560093F622E6438F01538FFDFFC3E583941C67
:10166600400122EF857CB7857DB7F0538FFE22437C
:101676008F02438F01857CB7857DB7901A0DF05395
:101686008FFC22901A0D7455D15A901A0E74AAD155
:101696005A227A3079D07820901A40D155E520F731
:1016A60009A3DAF7227A3079D0901A40E7D15A099D
:1016B600A3DAF922AB74A875BB01027980BB0202DA
:1016C6007981BB03027982BB04027984BB05027966
:1016D60086BB06027992BB07027987BB080279A30B
:1016E600BB0902799CBB0A027988BB0B027989E89F
:1016F600F7227C0512059FDCFB22C2AF1205AF1252
:1017060005B61205BD1205C41205901205AF1205E5
:10171600B61205BD1205C41205901205AF1205B624
:101726001205BD1205C4D2AF22C2AF1205C41205FE
:10173600BD1205B61205AF1205901205C41205BDFD
:101746001205B61205AF1205901205C41205BD1298
:1017560005B61205AFD2AF22AE74AF75C2AF120591
:10176600AF1205AF1205AF120590DEF21205C412D4
:101776000590DFF8D2AF22F100D1F8D1F8757401E7
:10178600757501757600F15E7C05AD5C12059FC32B
:10179600ED955C70F5C3E55C9401400AC3E55C9485
:1017A600FF40320217B9D1BAD113F100C2AF75EFBB
:1017B60016D1F8DCD50576C3E5769403500280C6CB
:1017C600D1F80575E5741490009F93F808C3E57584
:1017D60098500280AED1F8D1F80574C3E574940C24
:1017E6005002809C120F19D113C2AF75EF16D1F8B3
:0319FD0002106D68
:101A00000E0815090904FF03FF0901010155AA0188
:101A1000FFFFFFFFFF03FFFFFF25D0285004FF0259
:091A2000007AFF0101000300FF40
:101A400023584757326242616E67733639393623FD
:0D1A500023424C48454C4923463333302394
:101A60002020202020202020202020202020202076
:101C0000C2AFC2D353D9BF7581C043B20343FF8073
:101C1000752438752503B1DC7529A5752AF175E29F
:101C20004043F18053A47F75D4FFD2877DFA7803B7
:101C300079E67C10752200752300901DE97B0675FE
:101C400024987525013087028145208708D8FBD963
:101C5000F9DCF781B7308708D8FBD9F9DCF781B711
:101C6000B19CE493A3C39A6004DDC381B7DBDBB10D
:101C70008E6002812E7B08E493FAA3B16FDBF87AC1
:101C800030B16F752200752300B18EEAFCEBFDC305
:101C9000ED94FE400EB18E8A278B28ED30E0048A49
:101CA000828B83B18E7AC270D8C3ED94FE601950D6
:101CB000CEBD002BEC600F7520007521FF7529004B
:101CC000752A000200008100A827A9280809D80465
:101CD000D90281DCB192EA89AAF281CE0D81A3C337
:101CE000ED94035053EDA2E092007AC5C3E58294CF
:101CF00000E583941C508A200010438F02438F011B
:101D00008529B7852AB7F0300029A827A92808090E
:101D1000438F01538FFDD804D902A133C3E58394C7
:101D20001C4003A3A11689AAE28529B7852AB7F02A
:101D3000A3A116538FFC817F7AC1BD030CE493A34A
:101D4000FAB153DCF8B14B817F8181AA22AB23B178
:101D50006FEBFAEA6222752608C3E52313F523E543
:101D60002213F52250066323A0632201D526EAB18F
:101D7000DCB1DC75260AEAF4200102D287300102C8
:101D8000C287B1DCC3134002C201D526EB22B19257
:101D9000EAFB208702A192308702A197752608AE40
:101DA00024AF25C3EF13FFEE13FEB1E0B1DCC3EAAD
:101DB000133087024480FA30E703632201C3E5232E
:101DC00013F523E52213F52250066323A0632201B5
:101DD000D526D9E52265236523F52222AE24AF2539
:101DE0000E0FDEFEDFFCD20122424C48656C6934E6
:071DF000373164F3300601F6
:00000001FF
